{
  "_format": "hh-sol-artifact-1",
  "contractName": "MyNFT",
  "sourceName": "contracts/MyNFT.sol",
  "abi": [
    {
      "inputs": [],
      "stateMutability": "nonpayable",
      "type": "constructor"
    },
    {
      "anonymous": false,
      "inputs": [
        {
          "indexed": true,
          "internalType": "address",
          "name": "owner",
          "type": "address"
        },
        {
          "indexed": true,
          "internalType": "address",
          "name": "approved",
          "type": "address"
        },
        {
          "indexed": true,
          "internalType": "uint256",
          "name": "tokenId",
          "type": "uint256"
        }
      ],
      "name": "Approval",
      "type": "event"
    },
    {
      "anonymous": false,
      "inputs": [
        {
          "indexed": true,
          "internalType": "address",
          "name": "owner",
          "type": "address"
        },
        {
          "indexed": true,
          "internalType": "address",
          "name": "operator",
          "type": "address"
        },
        {
          "indexed": false,
          "internalType": "bool",
          "name": "approved",
          "type": "bool"
        }
      ],
      "name": "ApprovalForAll",
      "type": "event"
    },
    {
      "anonymous": false,
      "inputs": [
        {
          "indexed": true,
          "internalType": "uint256",
          "name": "tokenId",
          "type": "uint256"
        }
      ],
      "name": "NftMinted",
      "type": "event"
    },
    {
      "anonymous": false,
      "inputs": [
        {
          "indexed": true,
          "internalType": "address",
          "name": "from",
          "type": "address"
        },
        {
          "indexed": true,
          "internalType": "address",
          "name": "to",
          "type": "address"
        },
        {
          "indexed": true,
          "internalType": "uint256",
          "name": "tokenId",
          "type": "uint256"
        }
      ],
      "name": "Transfer",
      "type": "event"
    },
    {
      "inputs": [],
      "name": "TOKEN_URL",
      "outputs": [
        {
          "internalType": "string",
          "name": "",
          "type": "string"
        }
      ],
      "stateMutability": "view",
      "type": "function"
    },
    {
      "inputs": [
        {
          "internalType": "address",
          "name": "to",
          "type": "address"
        },
        {
          "internalType": "uint256",
          "name": "tokenId",
          "type": "uint256"
        }
      ],
      "name": "approve",
      "outputs": [],
      "stateMutability": "nonpayable",
      "type": "function"
    },
    {
      "inputs": [
        {
          "internalType": "address",
          "name": "owner",
          "type": "address"
        }
      ],
      "name": "balanceOf",
      "outputs": [
        {
          "internalType": "uint256",
          "name": "",
          "type": "uint256"
        }
      ],
      "stateMutability": "view",
      "type": "function"
    },
    {
      "inputs": [
        {
          "internalType": "uint256",
          "name": "tokenId",
          "type": "uint256"
        }
      ],
      "name": "getApproved",
      "outputs": [
        {
          "internalType": "address",
          "name": "",
          "type": "address"
        }
      ],
      "stateMutability": "view",
      "type": "function"
    },
    {
      "inputs": [],
      "name": "getTokenCounter",
      "outputs": [
        {
          "internalType": "uint256",
          "name": "",
          "type": "uint256"
        }
      ],
      "stateMutability": "view",
      "type": "function"
    },
    {
      "inputs": [
        {
          "internalType": "address",
          "name": "owner",
          "type": "address"
        },
        {
          "internalType": "address",
          "name": "operator",
          "type": "address"
        }
      ],
      "name": "isApprovedForAll",
      "outputs": [
        {
          "internalType": "bool",
          "name": "",
          "type": "bool"
        }
      ],
      "stateMutability": "view",
      "type": "function"
    },
    {
      "inputs": [],
      "name": "mintNft",
      "outputs": [],
      "stateMutability": "nonpayable",
      "type": "function"
    },
    {
      "inputs": [],
      "name": "name",
      "outputs": [
        {
          "internalType": "string",
          "name": "",
          "type": "string"
        }
      ],
      "stateMutability": "view",
      "type": "function"
    },
    {
      "inputs": [
        {
          "internalType": "uint256",
          "name": "tokenId",
          "type": "uint256"
        }
      ],
      "name": "ownerOf",
      "outputs": [
        {
          "internalType": "address",
          "name": "",
          "type": "address"
        }
      ],
      "stateMutability": "view",
      "type": "function"
    },
    {
      "inputs": [
        {
          "internalType": "address",
          "name": "from",
          "type": "address"
        },
        {
          "internalType": "address",
          "name": "to",
          "type": "address"
        },
        {
          "internalType": "uint256",
          "name": "tokenId",
          "type": "uint256"
        }
      ],
      "name": "safeTransferFrom",
      "outputs": [],
      "stateMutability": "nonpayable",
      "type": "function"
    },
    {
      "inputs": [
        {
          "internalType": "address",
          "name": "from",
          "type": "address"
        },
        {
          "internalType": "address",
          "name": "to",
          "type": "address"
        },
        {
          "internalType": "uint256",
          "name": "tokenId",
          "type": "uint256"
        },
        {
          "internalType": "bytes",
          "name": "data",
          "type": "bytes"
        }
      ],
      "name": "safeTransferFrom",
      "outputs": [],
      "stateMutability": "nonpayable",
      "type": "function"
    },
    {
      "inputs": [
        {
          "internalType": "address",
          "name": "operator",
          "type": "address"
        },
        {
          "internalType": "bool",
          "name": "approved",
          "type": "bool"
        }
      ],
      "name": "setApprovalForAll",
      "outputs": [],
      "stateMutability": "nonpayable",
      "type": "function"
    },
    {
      "inputs": [
        {
          "internalType": "bytes4",
          "name": "interfaceId",
          "type": "bytes4"
        }
      ],
      "name": "supportsInterface",
      "outputs": [
        {
          "internalType": "bool",
          "name": "",
          "type": "bool"
        }
      ],
      "stateMutability": "view",
      "type": "function"
    },
    {
      "inputs": [],
      "name": "symbol",
      "outputs": [
        {
          "internalType": "string",
          "name": "",
          "type": "string"
        }
      ],
      "stateMutability": "view",
      "type": "function"
    },
    {
      "inputs": [
        {
          "internalType": "uint256",
          "name": "tokenId",
          "type": "uint256"
        }
      ],
      "name": "tokenURI",
      "outputs": [
        {
          "internalType": "string",
          "name": "",
          "type": "string"
        }
      ],
      "stateMutability": "view",
      "type": "function"
    },
    {
      "inputs": [
        {
          "internalType": "address",
          "name": "from",
          "type": "address"
        },
        {
          "internalType": "address",
          "name": "to",
          "type": "address"
        },
        {
          "internalType": "uint256",
          "name": "tokenId",
          "type": "uint256"
        }
      ],
      "name": "transferFrom",
      "outputs": [],
      "stateMutability": "nonpayable",
      "type": "function"
    }
  ],
  "bytecode": "0x60806040523480156200001157600080fd5b506040518060400160405280600581526020017f4d794e46540000000000000000000000000000000000000000000000000000008152506040518060400160405280600381526020017f4d48540000000000000000000000000000000000000000000000000000000000815250816000908051906020019062000096929190620000b8565b508060019080519060200190620000af929190620000b8565b505050620001cd565b828054620000c69062000197565b90600052602060002090601f016020900481019282620000ea576000855562000136565b82601f106200010557805160ff191683800117855562000136565b8280016001018555821562000136579182015b828111156200013557825182559160200191906001019062000118565b5b50905062000145919062000149565b5090565b5b80821115620001645760008160009055506001016200014a565b5090565b7f4e487b7100000000000000000000000000000000000000000000000000000000600052602260045260246000fd5b60006002820490506001821680620001b057607f821691505b60208210811415620001c757620001c662000168565b5b50919050565b6123e580620001dd6000396000f3fe608060405234801561001057600080fd5b50600436106101005760003560e01c80636e02007d11610097578063b88d4fde11610066578063b88d4fde146102ad578063c2229fea146102c9578063c87b56dd146102d3578063e985e9c51461030357610100565b80636e02007d1461022557806370a082311461024357806395d89b4114610273578063a22cb4651461029157610100565b8063095ea7b3116100d3578063095ea7b3146101a157806323b872dd146101bd57806342842e0e146101d95780636352211e146101f557610100565b806301ffc9a71461010557806302b6bc5d1461013557806306fdde0314610153578063081812fc14610171575b600080fd5b61011f600480360381019061011a91906115c4565b610333565b60405161012c919061160c565b60405180910390f35b61013d610415565b60405161014a91906116c0565b60405180910390f35b61015b610431565b60405161016891906116c0565b60405180910390f35b61018b60048036038101906101869190611718565b6104c3565b6040516101989190611786565b60405180910390f35b6101bb60048036038101906101b691906117cd565b610509565b005b6101d760048036038101906101d2919061180d565b610621565b005b6101f360048036038101906101ee919061180d565b610681565b005b61020f600480360381019061020a9190611718565b6106a1565b60405161021c9190611786565b60405180910390f35b61022d610753565b60405161023a919061186f565b60405180910390f35b61025d6004803603810190610258919061188a565b610764565b60405161026a919061186f565b60405180910390f35b61027b61081c565b60405161028891906116c0565b60405180910390f35b6102ab60048036038101906102a691906118e3565b6108ae565b005b6102c760048036038101906102c29190611a58565b6108c4565b005b6102d1610926565b005b6102ed60048036038101906102e89190611718565b610978565b6040516102fa91906116c0565b60405180910390f35b61031d60048036038101906103189190611adb565b6109e2565b60405161032a919061160c565b60405180910390f35b60007f80ac58cd000000000000000000000000000000000000000000000000000000007bffffffffffffffffffffffffffffffffffffffffffffffffffffffff1916827bffffffffffffffffffffffffffffffffffffffffffffffffffffffff191614806103fe57507f5b5e139f000000000000000000000000000000000000000000000000000000007bffffffffffffffffffffffffffffffffffffffffffffffffffffffff1916827bffffffffffffffffffffffffffffffffffffffffffffffffffffffff1916145b8061040e575061040d82610a76565b5b9050919050565b6040518060800160405280605781526020016123596057913981565b60606000805461044090611b4a565b80601f016020809104026020016040519081016040528092919081815260200182805461046c90611b4a565b80156104b95780601f1061048e576101008083540402835291602001916104b9565b820191906000526020600020905b81548152906001019060200180831161049c57829003601f168201915b5050505050905090565b60006104ce82610ae0565b6004600083815260200190815260200160002060009054906101000a900473ffffffffffffffffffffffffffffffffffffffff169050919050565b6000610514826106a1565b90508073ffffffffffffffffffffffffffffffffffffffff168373ffffffffffffffffffffffffffffffffffffffff161415610585576040517f08c379a000000000000000000000000000000000000000000000000000000000815260040161057c90611bee565b60405180910390fd5b8073ffffffffffffffffffffffffffffffffffffffff166105a4610b2b565b73ffffffffffffffffffffffffffffffffffffffff1614806105d357506105d2816105cd610b2b565b6109e2565b5b610612576040517f08c379a000000000000000000000000000000000000000000000000000000000815260040161060990611c80565b60405180910390fd5b61061c8383610b33565b505050565b61063261062c610b2b565b82610bec565b610671576040517f08c379a000000000000000000000000000000000000000000000000000000000815260040161066890611d12565b60405180910390fd5b61067c838383610c81565b505050565b61069c838383604051806020016040528060008152506108c4565b505050565b6000806002600084815260200190815260200160002060009054906101000a900473ffffffffffffffffffffffffffffffffffffffff169050600073ffffffffffffffffffffffffffffffffffffffff168173ffffffffffffffffffffffffffffffffffffffff16141561074a576040517f08c379a000000000000000000000000000000000000000000000000000000000815260040161074190611d7e565b60405180910390fd5b80915050919050565b600061075f6006610ee8565b905090565b60008073ffffffffffffffffffffffffffffffffffffffff168273ffffffffffffffffffffffffffffffffffffffff1614156107d5576040517f08c379a00000000000000000000000000000000000000000000000000000000081526004016107cc90611e10565b60405180910390fd5b600360008373ffffffffffffffffffffffffffffffffffffffff1673ffffffffffffffffffffffffffffffffffffffff168152602001908152602001600020549050919050565b60606001805461082b90611b4a565b80601f016020809104026020016040519081016040528092919081815260200182805461085790611b4a565b80156108a45780601f10610879576101008083540402835291602001916108a4565b820191906000526020600020905b81548152906001019060200180831161088757829003601f168201915b5050505050905090565b6108c06108b9610b2b565b8383610ef6565b5050565b6108d56108cf610b2b565b83610bec565b610914576040517f08c379a000000000000000000000000000000000000000000000000000000000815260040161090b90611d12565b60405180910390fd5b61092084848484611063565b50505050565b60006109326006610ee8565b905061093e33826110bf565b807f7f8949b6eca2b14d0feb1af0844a112998e467a4f88b8683301f3a6e409f32ae60405160405180910390a261097560066110dd565b50565b6060610983826110f3565b6109c2576040517f08c379a00000000000000000000000000000000000000000000000000000000081526004016109b990611ea2565b60405180910390fd5b604051806080016040528060578152602001612359605791399050919050565b6000600560008473ffffffffffffffffffffffffffffffffffffffff1673ffffffffffffffffffffffffffffffffffffffff16815260200190815260200160002060008373ffffffffffffffffffffffffffffffffffffffff1673ffffffffffffffffffffffffffffffffffffffff16815260200190815260200160002060009054906101000a900460ff16905092915050565b60007f01ffc9a7000000000000000000000000000000000000000000000000000000007bffffffffffffffffffffffffffffffffffffffffffffffffffffffff1916827bffffffffffffffffffffffffffffffffffffffffffffffffffffffff1916149050919050565b610ae9816110f3565b610b28576040517f08c379a0000000000000000000000000000000000000000000000000000000008152600401610b1f90611d7e565b60405180910390fd5b50565b600033905090565b816004600083815260200190815260200160002060006101000a81548173ffffffffffffffffffffffffffffffffffffffff021916908373ffffffffffffffffffffffffffffffffffffffff160217905550808273ffffffffffffffffffffffffffffffffffffffff16610ba6836106a1565b73ffffffffffffffffffffffffffffffffffffffff167f8c5be1e5ebec7d5bd14f71427d1e84f3dd0314c0f7b2291e5b200ac8c7c3b92560405160405180910390a45050565b600080610bf8836106a1565b90508073ffffffffffffffffffffffffffffffffffffffff168473ffffffffffffffffffffffffffffffffffffffff161480610c3a5750610c3981856109e2565b5b80610c7857508373ffffffffffffffffffffffffffffffffffffffff16610c60846104c3565b73ffffffffffffffffffffffffffffffffffffffff16145b91505092915050565b8273ffffffffffffffffffffffffffffffffffffffff16610ca1826106a1565b73ffffffffffffffffffffffffffffffffffffffff1614610cf7576040517f08c379a0000000000000000000000000000000000000000000000000000000008152600401610cee90611f34565b60405180910390fd5b600073ffffffffffffffffffffffffffffffffffffffff168273ffffffffffffffffffffffffffffffffffffffff161415610d67576040517f08c379a0000000000000000000000000000000000000000000000000000000008152600401610d5e90611fc6565b60405180910390fd5b610d7283838361115f565b610d7d600082610b33565b6001600360008573ffffffffffffffffffffffffffffffffffffffff1673ffffffffffffffffffffffffffffffffffffffff1681526020019081526020016000206000828254610dcd9190612015565b925050819055506001600360008473ffffffffffffffffffffffffffffffffffffffff1673ffffffffffffffffffffffffffffffffffffffff1681526020019081526020016000206000828254610e249190612049565b92505081905550816002600083815260200190815260200160002060006101000a81548173ffffffffffffffffffffffffffffffffffffffff021916908373ffffffffffffffffffffffffffffffffffffffff160217905550808273ffffffffffffffffffffffffffffffffffffffff168473ffffffffffffffffffffffffffffffffffffffff167fddf252ad1be2c89b69c2b068fc378daa952ba7f163c4a11628f55a4df523b3ef60405160405180910390a4610ee3838383611164565b505050565b600081600001549050919050565b8173ffffffffffffffffffffffffffffffffffffffff168373ffffffffffffffffffffffffffffffffffffffff161415610f65576040517f08c379a0000000000000000000000000000000000000000000000000000000008152600401610f5c906120eb565b60405180910390fd5b80600560008573ffffffffffffffffffffffffffffffffffffffff1673ffffffffffffffffffffffffffffffffffffffff16815260200190815260200160002060008473ffffffffffffffffffffffffffffffffffffffff1673ffffffffffffffffffffffffffffffffffffffff16815260200190815260200160002060006101000a81548160ff0219169083151502179055508173ffffffffffffffffffffffffffffffffffffffff168373ffffffffffffffffffffffffffffffffffffffff167f17307eab39ab6107e8899845ad3d59bd9653f200f220920489ca2b5937696c3183604051611056919061160c565b60405180910390a3505050565b61106e848484610c81565b61107a84848484611169565b6110b9576040517f08c379a00000000000000000000000000000000000000000000000000000000081526004016110b09061217d565b60405180910390fd5b50505050565b6110d9828260405180602001604052806000815250611300565b5050565b6001816000016000828254019250508190555050565b60008073ffffffffffffffffffffffffffffffffffffffff166002600084815260200190815260200160002060009054906101000a900473ffffffffffffffffffffffffffffffffffffffff1673ffffffffffffffffffffffffffffffffffffffff1614159050919050565b505050565b505050565b600061118a8473ffffffffffffffffffffffffffffffffffffffff1661135b565b156112f3578373ffffffffffffffffffffffffffffffffffffffff1663150b7a026111b3610b2b565b8786866040518563ffffffff1660e01b81526004016111d594939291906121f2565b602060405180830381600087803b1580156111ef57600080fd5b505af192505050801561122057506040513d601f19601f8201168201806040525081019061121d9190612253565b60015b6112a3573d8060008114611250576040519150601f19603f3d011682016040523d82523d6000602084013e611255565b606091505b5060008151141561129b576040517f08c379a00000000000000000000000000000000000000000000000000000000081526004016112929061217d565b60405180910390fd5b805181602001fd5b63150b7a0260e01b7bffffffffffffffffffffffffffffffffffffffffffffffffffffffff1916817bffffffffffffffffffffffffffffffffffffffffffffffffffffffff1916149150506112f8565b600190505b949350505050565b61130a838361137e565b6113176000848484611169565b611356576040517f08c379a000000000000000000000000000000000000000000000000000000000815260040161134d9061217d565b60405180910390fd5b505050565b6000808273ffffffffffffffffffffffffffffffffffffffff163b119050919050565b600073ffffffffffffffffffffffffffffffffffffffff168273ffffffffffffffffffffffffffffffffffffffff1614156113ee576040517f08c379a00000000000000000000000000000000000000000000000000000000081526004016113e5906122cc565b60405180910390fd5b6113f7816110f3565b15611437576040517f08c379a000000000000000000000000000000000000000000000000000000000815260040161142e90612338565b60405180910390fd5b6114436000838361115f565b6001600360008473ffffffffffffffffffffffffffffffffffffffff1673ffffffffffffffffffffffffffffffffffffffff16815260200190815260200160002060008282546114939190612049565b92505081905550816002600083815260200190815260200160002060006101000a81548173ffffffffffffffffffffffffffffffffffffffff021916908373ffffffffffffffffffffffffffffffffffffffff160217905550808273ffffffffffffffffffffffffffffffffffffffff16600073ffffffffffffffffffffffffffffffffffffffff167fddf252ad1be2c89b69c2b068fc378daa952ba7f163c4a11628f55a4df523b3ef60405160405180910390a461155460008383611164565b5050565b6000604051905090565b600080fd5b600080fd5b60007fffffffff0000000000000000000000000000000000000000000000000000000082169050919050565b6115a18161156c565b81146115ac57600080fd5b50565b6000813590506115be81611598565b92915050565b6000602082840312156115da576115d9611562565b5b60006115e8848285016115af565b91505092915050565b60008115159050919050565b611606816115f1565b82525050565b600060208201905061162160008301846115fd565b92915050565b600081519050919050565b600082825260208201905092915050565b60005b83811015611661578082015181840152602081019050611646565b83811115611670576000848401525b50505050565b6000601f19601f8301169050919050565b600061169282611627565b61169c8185611632565b93506116ac818560208601611643565b6116b581611676565b840191505092915050565b600060208201905081810360008301526116da8184611687565b905092915050565b6000819050919050565b6116f5816116e2565b811461170057600080fd5b50565b600081359050611712816116ec565b92915050565b60006020828403121561172e5761172d611562565b5b600061173c84828501611703565b91505092915050565b600073ffffffffffffffffffffffffffffffffffffffff82169050919050565b600061177082611745565b9050919050565b61178081611765565b82525050565b600060208201905061179b6000830184611777565b92915050565b6117aa81611765565b81146117b557600080fd5b50565b6000813590506117c7816117a1565b92915050565b600080604083850312156117e4576117e3611562565b5b60006117f2858286016117b8565b925050602061180385828601611703565b9150509250929050565b60008060006060848603121561182657611825611562565b5b6000611834868287016117b8565b9350506020611845868287016117b8565b925050604061185686828701611703565b9150509250925092565b611869816116e2565b82525050565b60006020820190506118846000830184611860565b92915050565b6000602082840312156118a05761189f611562565b5b60006118ae848285016117b8565b91505092915050565b6118c0816115f1565b81146118cb57600080fd5b50565b6000813590506118dd816118b7565b92915050565b600080604083850312156118fa576118f9611562565b5b6000611908858286016117b8565b9250506020611919858286016118ce565b9150509250929050565b600080fd5b600080fd5b7f4e487b7100000000000000000000000000000000000000000000000000000000600052604160045260246000fd5b61196582611676565b810181811067ffffffffffffffff821117156119845761198361192d565b5b80604052505050565b6000611997611558565b90506119a3828261195c565b919050565b600067ffffffffffffffff8211156119c3576119c261192d565b5b6119cc82611676565b9050602081019050919050565b82818337600083830152505050565b60006119fb6119f6846119a8565b61198d565b905082815260208101848484011115611a1757611a16611928565b5b611a228482856119d9565b509392505050565b600082601f830112611a3f57611a3e611923565b5b8135611a4f8482602086016119e8565b91505092915050565b60008060008060808587031215611a7257611a71611562565b5b6000611a80878288016117b8565b9450506020611a91878288016117b8565b9350506040611aa287828801611703565b925050606085013567ffffffffffffffff811115611ac357611ac2611567565b5b611acf87828801611a2a565b91505092959194509250565b60008060408385031215611af257611af1611562565b5b6000611b00858286016117b8565b9250506020611b11858286016117b8565b9150509250929050565b7f4e487b7100000000000000000000000000000000000000000000000000000000600052602260045260246000fd5b60006002820490506001821680611b6257607f821691505b60208210811415611b7657611b75611b1b565b5b50919050565b7f4552433732313a20617070726f76616c20746f2063757272656e74206f776e6560008201527f7200000000000000000000000000000000000000000000000000000000000000602082015250565b6000611bd8602183611632565b9150611be382611b7c565b604082019050919050565b60006020820190508181036000830152611c0781611bcb565b9050919050565b7f4552433732313a20617070726f76652063616c6c6572206973206e6f7420746f60008201527f6b656e206f776e6572206e6f7220617070726f76656420666f7220616c6c0000602082015250565b6000611c6a603e83611632565b9150611c7582611c0e565b604082019050919050565b60006020820190508181036000830152611c9981611c5d565b9050919050565b7f4552433732313a2063616c6c6572206973206e6f7420746f6b656e206f776e6560008201527f72206e6f7220617070726f766564000000000000000000000000000000000000602082015250565b6000611cfc602e83611632565b9150611d0782611ca0565b604082019050919050565b60006020820190508181036000830152611d2b81611cef565b9050919050565b7f4552433732313a20696e76616c696420746f6b656e2049440000000000000000600082015250565b6000611d68601883611632565b9150611d7382611d32565b602082019050919050565b60006020820190508181036000830152611d9781611d5b565b9050919050565b7f4552433732313a2061646472657373207a65726f206973206e6f74206120766160008201527f6c6964206f776e65720000000000000000000000000000000000000000000000602082015250565b6000611dfa602983611632565b9150611e0582611d9e565b604082019050919050565b60006020820190508181036000830152611e2981611ded565b9050919050565b7f4552433732314d657461646174613a2055524920717565727920666f72206e6f60008201527f6e6578697374656e7420746f6b656e0000000000000000000000000000000000602082015250565b6000611e8c602f83611632565b9150611e9782611e30565b604082019050919050565b60006020820190508181036000830152611ebb81611e7f565b9050919050565b7f4552433732313a207472616e736665722066726f6d20696e636f72726563742060008201527f6f776e6572000000000000000000000000000000000000000000000000000000602082015250565b6000611f1e602583611632565b9150611f2982611ec2565b604082019050919050565b60006020820190508181036000830152611f4d81611f11565b9050919050565b7f4552433732313a207472616e7366657220746f20746865207a65726f2061646460008201527f7265737300000000000000000000000000000000000000000000000000000000602082015250565b6000611fb0602483611632565b9150611fbb82611f54565b604082019050919050565b60006020820190508181036000830152611fdf81611fa3565b9050919050565b7f4e487b7100000000000000000000000000000000000000000000000000000000600052601160045260246000fd5b6000612020826116e2565b915061202b836116e2565b92508282101561203e5761203d611fe6565b5b828203905092915050565b6000612054826116e2565b915061205f836116e2565b9250827fffffffffffffffffffffffffffffffffffffffffffffffffffffffffffffffff0382111561209457612093611fe6565b5b828201905092915050565b7f4552433732313a20617070726f766520746f2063616c6c657200000000000000600082015250565b60006120d5601983611632565b91506120e08261209f565b602082019050919050565b60006020820190508181036000830152612104816120c8565b9050919050565b7f4552433732313a207472616e7366657220746f206e6f6e20455243373231526560008201527f63656976657220696d706c656d656e7465720000000000000000000000000000602082015250565b6000612167603283611632565b91506121728261210b565b604082019050919050565b600060208201905081810360008301526121968161215a565b9050919050565b600081519050919050565b600082825260208201905092915050565b60006121c48261219d565b6121ce81856121a8565b93506121de818560208601611643565b6121e781611676565b840191505092915050565b60006080820190506122076000830187611777565b6122146020830186611777565b6122216040830185611860565b818103606083015261223381846121b9565b905095945050505050565b60008151905061224d81611598565b92915050565b60006020828403121561226957612268611562565b5b60006122778482850161223e565b91505092915050565b7f4552433732313a206d696e7420746f20746865207a65726f2061646472657373600082015250565b60006122b6602083611632565b91506122c182612280565b602082019050919050565b600060208201905081810360008301526122e5816122a9565b9050919050565b7f4552433732313a20746f6b656e20616c7265616479206d696e74656400000000600082015250565b6000612322601c83611632565b915061232d826122ec565b602082019050919050565b6000602082019050818103600083015261235181612315565b905091905056fe697066733a2f2f62616679626569673337696f6972373673376d67356f6f6265746e636f6a636d3363336878617379643472766964346a71687934676b61686567342f3f66696c656e616d653d302d5055472e6a736f6ea2646970667358221220498b7f10d221bcde8853aa8586d1858f27247ee855ef80c412c6e66db3fc951564736f6c63430008090033",
  "linkReferences": {},
  "deployedLinkReferences": {}
}